{
    "contractName": "RandomNumberConsumer",
    "abi": [
        {
            "inputs": [],
            "stateMutability": "nonpayable",
            "type": "constructor"
        },
        {
            "inputs": [],
            "name": "randomResult",
            "outputs": [
                {
                    "internalType": "uint256",
                    "name": "",
                    "type": "uint256"
                }
            ],
            "stateMutability": "view",
            "type": "function"
        },
        {
            "inputs": [
                {
                    "internalType": "bytes32",
                    "name": "requestId",
                    "type": "bytes32"
                },
                {
                    "internalType": "uint256",
                    "name": "randomness",
                    "type": "uint256"
                }
            ],
            "name": "rawFulfillRandomness",
            "outputs": [],
            "stateMutability": "nonpayable",
            "type": "function"
        },
        {
            "inputs": [],
            "name": "getRandomNumber",
            "outputs": [
                {
                    "internalType": "bytes32",
                    "name": "requestId",
                    "type": "bytes32"
                }
            ],
            "stateMutability": "nonpayable",
            "type": "function"
        }
    ],
    "bytecode": "0x60c060405234801561001057600080fd5b5073dd3782915140c8f3b190b5d67eac6dc5760c46e973a36085f69e2889c224210f603d836748e7dc00888173ffffffffffffffffffffffffffffffffffffffff1660a08173ffffffffffffffffffffffffffffffffffffffff1660601b815250508073ffffffffffffffffffffffffffffffffffffffff1660808173ffffffffffffffffffffffffffffffffffffffff1660601b8152505050507f6c3699283bda56ad74f6b855546325b68d482e983852a7a82979cc4807b641f460001b60018190555067016345785d8a000060028190555060805160601c60a05160601c6109a061011c6000396000818160a6015261028d015260008181610147015261025101526109a06000f3fe608060405234801561001057600080fd5b50600436106100415760003560e01c806342619f661461004657806394985ddd14610064578063dbdff2c114610080575b600080fd5b61004e61009e565b60405161005b9190610731565b60405180910390f35b61007e6004803603810190610079919061049c565b6100a4565b005b610088610140565b6040516100959190610668565b60405180910390f35b60035481565b7f000000000000000000000000000000000000000000000000000000000000000073ffffffffffffffffffffffffffffffffffffffff163373ffffffffffffffffffffffffffffffffffffffff1614610132576040517f08c379a000000000000000000000000000000000000000000000000000000000815260040161012990610711565b60405180910390fd5b61013c8282610242565b5050565b60006002547f000000000000000000000000000000000000000000000000000000000000000073ffffffffffffffffffffffffffffffffffffffff166370a08231306040518263ffffffff1660e01b815260040161019e919061060f565b60206040518083038186803b1580156101b657600080fd5b505afa1580156101ca573d6000803e3d6000fd5b505050506040513d601f19601f820116820180604052508101906101ee91906104dc565b101561022f576040517f08c379a0000000000000000000000000000000000000000000000000000000008152600401610226906106f1565b60405180910390fd5b61023d60015460025461024d565b905090565b806003819055505050565b60007f000000000000000000000000000000000000000000000000000000000000000073ffffffffffffffffffffffffffffffffffffffff16634000aea07f0000000000000000000000000000000000000000000000000000000000000000848660006040516020016102c1929190610683565b6040516020818303038152906040526040518463ffffffff1660e01b81526004016102ee9392919061062a565b602060405180830381600087803b15801561030857600080fd5b505af115801561031c573d6000803e3d6000fd5b505050506040513d601f19601f82011682018060405250810190610340919061046f565b50600061036284600030600080898152602001908152602001600020546103ac565b90506001600080868152602001908152602001600020546103839190610779565b600080868152602001908152602001600020819055506103a384826103e8565b91505092915050565b6000848484846040516020016103c594939291906106ac565b6040516020818303038152906040528051906020012060001c9050949350505050565b600082826040516020016103fd9291906105e3565b60405160208183030381529060405280519060200120905092915050565b60008151905061042a81610925565b92915050565b60008135905061043f8161093c565b92915050565b60008135905061045481610953565b92915050565b60008151905061046981610953565b92915050565b60006020828403121561048557610484610897565b5b60006104938482850161041b565b91505092915050565b600080604083850312156104b3576104b2610897565b5b60006104c185828601610430565b92505060206104d285828601610445565b9150509250929050565b6000602082840312156104f2576104f1610897565b5b60006105008482850161045a565b91505092915050565b610512816107cf565b82525050565b610521816107ed565b82525050565b610538610533826107ed565b610854565b82525050565b60006105498261074c565b6105538185610757565b9350610563818560208601610821565b61056c8161089c565b840191505092915050565b6000610584602b83610768565b915061058f826108ad565b604082019050919050565b60006105a7601f83610768565b91506105b2826108fc565b602082019050919050565b6105c681610817565b82525050565b6105dd6105d882610817565b61085e565b82525050565b60006105ef8285610527565b6020820191506105ff82846105cc565b6020820191508190509392505050565b60006020820190506106246000830184610509565b92915050565b600060608201905061063f6000830186610509565b61064c60208301856105bd565b818103604083015261065e818461053e565b9050949350505050565b600060208201905061067d6000830184610518565b92915050565b60006040820190506106986000830185610518565b6106a560208301846105bd565b9392505050565b60006080820190506106c16000830187610518565b6106ce60208301866105bd565b6106db6040830185610509565b6106e860608301846105bd565b95945050505050565b6000602082019050818103600083015261070a81610577565b9050919050565b6000602082019050818103600083015261072a8161059a565b9050919050565b600060208201905061074660008301846105bd565b92915050565b600081519050919050565b600082825260208201905092915050565b600082825260208201905092915050565b600061078482610817565b915061078f83610817565b9250827fffffffffffffffffffffffffffffffffffffffffffffffffffffffffffffffff038211156107c4576107c3610868565b5b828201905092915050565b60006107da826107f7565b9050919050565b60008115159050919050565b6000819050919050565b600073ffffffffffffffffffffffffffffffffffffffff82169050919050565b6000819050919050565b60005b8381101561083f578082015181840152602081019050610824565b8381111561084e576000848401525b50505050565b6000819050919050565b6000819050919050565b7f4e487b7100000000000000000000000000000000000000000000000000000000600052601160045260246000fd5b600080fd5b6000601f19601f8301169050919050565b7f4e6f7420656e6f756768204c494e4b202d2066696c6c20636f6e74726163742060008201527f7769746820666175636574000000000000000000000000000000000000000000602082015250565b7f4f6e6c7920565246436f6f7264696e61746f722063616e2066756c66696c6c00600082015250565b61092e816107e1565b811461093957600080fd5b50565b610945816107ed565b811461095057600080fd5b50565b61095c81610817565b811461096757600080fd5b5056fea26469706673582212204973d0c56bfd4fd6c7ec9a654047a1c21141dbf34e2c9cbb0659ba2c9829ce0964736f6c63430008070033",
    "immutableReferences": {
        "73": [
            {
                "length": 32,
                "start": 327
            },
            {
                "length": 32,
                "start": 593
            }
        ],
        "75": [
            {
                "length": 32,
                "start": 166
            },
            {
                "length": 32,
                "start": 653
            }
        ]
    },
    "source": "// SPDX-License-Identifier: MIT\npragma solidity ^0.8.7;\n\nimport \"@chainlink/contracts/src/v0.8/VRFConsumerBase.sol\";\n\n/**\n * THIS IS AN EXAMPLE CONTRACT WHICH USES HARDCODED VALUES FOR CLARITY.\n * PLEASE DO NOT USE THIS CODE IN PRODUCTION.\n */\ncontract RandomNumberConsumer is VRFConsumerBase {\n    \n    bytes32 internal keyHash;\n    uint256 internal fee;\n    \n    uint256 public randomResult;\n    \n    /**\n     * Constructor inherits VRFConsumerBase\n     * \n     * Network: Kovan\n     * Chainlink VRF Coordinator address: 0xdD3782915140c8f3b190B5D67eAc6dc5760C46E9\n     * LINK token address:                0xa36085F69e2889c224210F603D836748e7dC0088\n     * Key Hash: 0x6c3699283bda56ad74f6b855546325b68d482e983852a7a82979cc4807b641f4\n     */\n    constructor() \n        VRFConsumerBase(\n            0xdD3782915140c8f3b190B5D67eAc6dc5760C46E9, // VRF Coordinator\n            0xa36085F69e2889c224210F603D836748e7dC0088  // LINK Token\n        )\n    {\n        keyHash = 0x6c3699283bda56ad74f6b855546325b68d482e983852a7a82979cc4807b641f4;\n        fee = 0.1 * 10 ** 18; // 0.1 LINK (Varies by network)\n    }\n    \n    /** \n     * Requests randomness \n     */\n    function getRandomNumber() public returns (bytes32 requestId) {\n        require(LINK.balanceOf(address(this)) >= fee, \"Not enough LINK - fill contract with faucet\");\n        return requestRandomness(keyHash, fee);\n    }\n\n    /**\n     * Callback function used by VRF Coordinator\n     */\n    function fulfillRandomness(bytes32 requestId, uint256 randomness) internal override {\n        randomResult = randomness;\n    }\n\n    // function withdrawLink() external {} - Implement a withdraw function to avoid locking your LINK in the contract\n}\n",
    "sourcePath": "/home/jatin/blockchain/cryptozombies/contracts/Random.sol",
    "compiler": {
        "name": "solc",
        "version": "0.8.7+commit.e28d00a7.Emscripten.clang"
    },
    "schemaVersion": "3.4.3",
    "updatedAt": "2021-10-07T09:09:26.604Z",
    "devdoc": {
        "kind": "dev",
        "methods": {},
        "version": 1
    },
    "userdoc": {
        "kind": "user",
        "methods": {
            "constructor": {
                "notice": "Constructor inherits VRFConsumerBase  Network: Kovan Chainlink VRF Coordinator address: 0xdD3782915140c8f3b190B5D67eAc6dc5760C46E9 LINK token address:                0xa36085F69e2889c224210F603D836748e7dC0088 Key Hash: 0x6c3699283bda56ad74f6b855546325b68d482e983852a7a82979cc4807b641f4"
            },
            "getRandomNumber()": {
                "notice": "Requests randomness "
            }
        },
        "notice": "THIS IS AN EXAMPLE CONTRACT WHICH USES HARDCODED VALUES FOR CLARITY. PLEASE DO NOT USE THIS CODE IN PRODUCTION.",
        "version": 1
    }
}